:07024C0068616E736572002A
:100198001202097BFF7A02794C7D017F02120175F8
:1001A800750C037B087A027D087F021201D680FE57
:06021D00C2A58F80D2A7EC
:080223007F027EEFDEFEDFFC2E
:01022B0022B0
:0A023800C2A612021DC2A702022393
:1001B800CFCDCFCECCCE1200427C007D0A120042B9
:0401C800ED2430FFF3
:0A01CC00D2A612021DC2A7020223F0
:1001F300AE07BE0104ED148006BE0209ED243F44A0
:0602030080FF1202382208
:100209007F381202387F0C1202387F061202387FBB
:0402190001020238A4
:0A024200AC031201F3AF040201CC7B
:060175008B088A09890ACB
:10017B001201F3E4FDAB08AA09A90A8D827583006D
:0C018B00120003FF60061201CC0D80E999
:010197002245
:0C0142007F0AEA24FFFDE434FFFC7E008D
:08014E008E0D8F0E8C0F8D1039
:100156007F017E00E4FBEBC39510E50F6480F87425
:0E0166008098500AAC0DAD0E1200300B80E8F0
:010174002268
:0401D6008A0A8B0BFB
:1001DA001201F3AA0CEAD39400400D120142AC0AB0
:0801EA00AD0B1201B81A80ED03
:0101F20022EA
:100097001201F3C3EA64809480400B7F2B1201CCDA
:1000A7008A168B17800E7F2D1201CCC3E49BF517A0
:1000B700E49AF516AA15EAD39400400D120142AC52
:0900C70016AD171201B81A80ED04
:0100D000220D
:0400D1008A1A8B1BE1
:1000D5001201F3AA1CEAD3940040297F10120144AF
:1000E500AC1AAD1BCFCDCFCECCCE120042EF540F04
:1000F500FEC3940AEE5004243080022437FF120117
:04010500CC1A80D1BF
:0101090022D3
:04010A008A1F8B209D
:10010E001201F3AA21EAD394004028EA24FFFDE469
:10011E0034FFFC7F027E0012014EAC1FAD20CFCD0E
:10012E00CFCECCCE120042EF54012430FF1201CCC0
:03013E001A80D252
:01014100229B
:0300000002022CCD
:0C022C00787FE4F6D8FD7581210201986E
:10000300BB010CE58229F582E5833AF583E02250B2
:1000130006E92582F8E622BBFE06E92582F8E222FC
:0D002300E58229F582E5833AF583E4932216
:10003000EF8DF0A4A8F0CF8CF0A428CE8DF0A42EE4
:02004000FE229E
:10004200BC000BBE0029EF8DF084FFADF022E4CCA2
:10005200F875F008EF2FFFEE33FEEC33FCEE9DEC6B
:10006200984005FCEE9DFE0FD5F0E9E4CEFD22EDB1
:10007200F8F5F0EE8420D21CFEADF075F008EF2FFB
:10008200FFED33FD4007985006D5F0F222C398FDEC
:050092000FD5F0EA2289
:00000001FF
