:1005B600323020202D20202D0020203A20203A0005
:1001FE001205A21205F21200037BFF7A0579B67D75
:10020E00017F011205197BFF7A0579BF7D017F02FF
:10021E00120519120318E518FB3395E0FA750C0256
:10022E007D037F0112055AE519FB3395E0FA750C33
:10023E00027D067F0112055AE51AFB3395E0FA7529
:10024E000C027D097F0112055AE51BFB3395E0FA7E
:10025E00750C027D017F0212055AE51CFB3395E0F9
:10026E00FA750C027D047F0212055AE51DFB3395CB
:0E027E00E0FA750C027D077F0212055A80958A
:0605C600C2A58F80D2A740
:0805CC007F027EEFDEFEDFFC82
:0105D4002204
:0A05D500C2A61205C6C2A70205CC9B
:10053C00CFCDCFCECCCE1201A97C007D0A1201A961
:04054C00ED2430FF6B
:0A055000D2A61205C6C2A70205CC10
:10057700AE07BE0104ED148006BE0209ED243F4418
:0605870080FF1205D522E1
:1005A2007F381205D57F0C1205D57F061205D57F3F
:0405B200010205D568
:0A05DF00AC03120577AF04020550CB
:060519008B088A09890A23
:10051F00120577E4FDAB08AA09A90A8D827583003D
:0C052F0012016AFF60061205500D80E901
:01053B00229D
:0C04E6007F0AEA24FFFDE434FFFC7E00E6
:0804F2008E0D8F0E8C0F8D1092
:1004FA007F017E00E4FBEBC39510E50F6480F8747E
:0E050A008098500AAC0DAD0E1201970B80E8E0
:0105180022C0
:04055A008A0A8B0B73
:10055E00120577AA0CEAD39400400D1204E6AC0AF9
:08056E00AD0B12053C1A80EDF3
:010576002262
:10043B00120577C3EA64809480400B7F2B12055022
:10044B008A168B17800E7F2D120550C3E49BF51770
:10045B00E49AF516AA15EAD39400400D1204E6AC03
:09046B0016AD1712053C1A80EDD4
:010474002265
:040475008A208B212D
:10047900120577AA22EAD3940040297F101204E8D2
:10048900AC20AD21CFCDCFCECCCE1201A9EF540FE8
:10049900FEC3940AEE5004243080022437FF12056B
:0404A900501A80D194
:0104AD00222C
:0404AE008A258B26EA
:1004B200120577AA27EAD394004028EA24FFFDE434
:1004C20034FFFC7F027E001204F2AC25AD26CFCDB4
:1004D200CFCECCCE1201A9EF54012430FF12055029
:0304E2001A80D2AB
:0104E50022F4
:0805E900061818011C0E0000A9
:0505F200C2B5C2B622F3
:050391002DFDEE3CFC17
:060396008C088D09AB0785
:10039C00D2B5E4FD74017E00A805088005C333CEF8
:1003AC0033CED8F9FFEBF582EF558224FF92B4D20D
:1003BC00B6C2B60DBD08DDE4FD74017E00A80508CB
:1003CC008005C333CE33CED8F9FFE5085EFEE509D0
:1003DC005F4E24FF92B4D2B6C2B60DBD08DBC2B5D7
:0103EC0022EE
:0203ED00AD075A
:1003EF00E4F9430501D2B5FB74017E00A803088030
:1003FF0005C333CE33CED8F9FFEDF582EF55822406
:10040F00FF92B4C2B6D2B60BBB08DDE4FBD2B6C2C4
:10041F00B630B40D7401A803088002C333D8FC4270
:0B042F00010BBB08E8C2B5C2B4AF016E
:01043A00229F
:10000300E4FDFC7F8E120396E51875F00A12014891
:10001300FF3395E0FEEFC4F8540FC868FFEEC454F5
:10002300F048FEE51875F00A120148ADF0ED33957E
:10003300E0FCEF7F8C120391E51975F00A12014879
:10004300FF3395E0FEEFC4F8540FC868FFEEC454C5
:10005300F048FEE51975F00A120148ADF0ED33954D
:10006300E0FCEF7F88120391E51A75F00A1201484C
:10007300FF3395E0FEEFC4F8540FC868FFEEC45495
:10008300F048FEE51A75F00A120148ADF0ED33951C
:10009300E0FCEF2DFDEE3CFC7F86120396E51B751D
:1000A300F00A120148FF3395E0FEEFC4F8540FC87D
:1000B30068FFEEC454F048FEE51B75F00A120148D0
:1000C300ADF0ED3395E0FCEF2DFDEE3CFC7F8412AB
:1000D3000396E51C75F00A120148FF3395E0FEEF25
:1000E300C4F8540FC868FFEEC454F048FEE51C750D
:1000F300F00A120148ADF0ED3395E0FCEF2DFDEE73
:100103003CFC7F82120396E51D75F00A120148FF3D
:100113003395E0FEEFC4F8540FC868FFEEC454F003
:1001230048FEE51D75F00A120148ADF0ED3395E088
:10013300FCEF2DFDEE3CFC7F801203967D807C005E
:050143007F8E0203960F
:100318007F8C1203EDEFC4540F75F00AA4FEEF545E
:100328000F2EF5187F881203EDEFC4540F75F00AED
:10033800A4FEEF540F2EF5197F861203EDEFC45477
:100348000F75F00AA4FEEF540F2EF51A7F841203DE
:10035800EDEFC4540F75F00AA4FEEF540F2EF51BF1
:100368007F821203EDEFC4540F75F00AA4FEEF5418
:100378000F2EF51C7F801203EDEFC4540F75F00AA1
:08038800A4FEEF540F2EF51D39
:01039000224A
:10058D00EF1FAC0670011E4C600A7D027CC7DCFEBD
:04059D00DDFC80EC15
:0105A1002237
:0300000002028C6D
:0C028C00787FE4F6D8FD7581270202D3CC
:10014800C2D530F707B2D563F0FF05F030E70CB23F
:10015800D5F4048463F0FF05F080018430D502F4FF
:0201680004226F
:10016A00BB010CE58229F582E5833AF583E022504A
:10017A0006E92582F8E622BBFE06E92582F8E22294
:0D018A00E58229F582E5833AF583E49322AE
:10019700EF8DF0A4A8F0CF8CF0A428CE8DF0A42E7C
:0201A700FE2236
:1001A900BC000BBE0029EF8DF084FFADF022E4CC3A
:1001B900F875F008EF2FFFEE33FEEC33FCEE9DEC03
:1001C900984005FCEE9DFE0FD5F0E9E4CEFD22ED49
:1001D900F8F5F0EE8420D21CFEADF075F008EF2F93
:1001E900FFED33FD4007985006D5F0F222C398FD84
:0501F9000FD5F0EA2221
:100298000201FEE493A3F8E493A34003F68001F27D
:1002A80008DFF48029E493A3F85407240CC8C33367
:1002B800C4540F4420C8834004F456800146F6DF36
:1002C800E4800B01020408102040809005E9E47ED8
:1002D800019360BCA3FF543F30E509541FFEE4932B
:1002E800A360010ECF54C025E060A840B8E493A3F2
:1002F800FAE493A3F8E493A3C8C582C8CAC583CA1D
:10030800F0A3C8C582C8CAC583CADFE9DEE780BED4
:0105F1000009
:00000001FF
