:10000E001203A61204108F23E523B4010CE52B7006
:10001E00047F0180027F008F2BE523B40207E4F5F5
:10002E0022F521F52AE52364037033E522FD7C00D9
:10003E00E4FF12032C7F057E001203D3E521FD7C25
:10004E00007F0112032C7F057E001203D3E52AFDEB
:10005E007C007F0212032C7F057E001203D3E52362
:10006E00B40415E4FF1202AC8F227F011202AC8F92
:10007E00217F021202AC8F2AE52275F00A84FD7CE4
:10008E00007F01120407E52275F00A84E5F0FD7C7D
:10009E00007F021204077D0B7C007F03120407E52C
:1000AE002175F00A84FD7C007F04120407E521759A
:1000BE00F00A84E5F0FD7C007F051204077D0B7CC1
:1000CE00007F06120407E52A75F00A84FD7C007F86
:1000DE0007120407E52A75F00A84E5F0FD7C007F1F
:0700EE0008120407020011D3
:10030500E52B6022052AE52AC394644019E4F52A01
:100315000521E521943C400EE4F5210522E52294D2
:070325003C4003E4F5222235
:03000B000200F5FB
:1000F500C0E0C0F0C083C082C0D075D000C000C0D1
:1001050001C002C003C004C005C006C007758A66E9
:10011500758CFC0525E52570020524C39414E5249A
:10012500940040097524007525001202730527E522
:100135002770020526C39402E5269400400975261A
:100145000075270012038B0529E52970020528C3D0
:10015500940AE528940040097528007529001203C2
:1001650005D007D006D005D004D003D002D001D0E9
:0C01750000D0D0D082D083D0F0D0E03297
:05041000AF2EE4F52E03
:0104150022C4
:1003BD00E4FF20B1010F20B0027F0220B2027F03C3
:0503CD0020B3027F04D3
:0103D2002208
:10027300852C2D1203BD8F2CE52DB40107E52C70C1
:1002830003752E01E52DB40207E52C7003752E02CC
:10029300E52DB40307E52C7003752E03E52DB40497
:0802A30007E52C7003752E0421
:0102AB002230
:10032C008F2F8C308D311203F57FA01202DC12035B
:10033C00E8AF2F1202DC1203E8AF311202DC120319
:04034C00E8020003C0
:0202AC008F2F92
:1002AE001203F57FA01202DC1203E8AF2F1202DC5C
:1002BE001203E81203F57FA11202DC1203E8120307
:0D02CE00508F30D2001203FE120003AF303B
:0102DB002200
:0903F500D2A0D2A1C2A0C2A12233
:07000300C2A0D2A1D2A0228D
:0202DC00AD076C
:1002DE00E4FB74807E00A803088006CEA2E713CE4E
:1002EE0013D8F8FFEDF582EF558224FF92A0D2A12C
:0602FE00C2A10BBB08DCED
:0103040022D6
:10035000E4FFD2A0FED2A130A00D7480A8060880D0
:0D03600002C313D8FC4207C2A10EBE08E87C
:01036D00226D
:0903FE00A20092A0D2A1C2A1222A
:0C03E800D2A0D2A1A2A09200C2A1A2004B
:0103F40022E6
:10036E000909000A0A0A0A0A0A0A0A0C123F065B5F
:0C037E004F666D7D077F6F004001080195
:09040700AE0574092FF8A60622C7
:10020D00E4F580EF14B40800505490022575F00306
:10021D00A4C58325F0C5837302023D02024102028B
:10022D004502024902024D02025502025D020265BB
:10023D00D2A4800ED2A48012D2A48016D2A4801A89
:10024D00C2A4D2A3D2A28016C2A4D2A3C2A2800EEF
:10025D00C2A4C2A3D2A28006C2A4C2A3C2A2741217
:06026D002DF8E6F58022E9
:10038B0074092508F8E6FD7C00AF0812020D05087C
:0A039B00E508C3940940037508014A
:0103A5002235
:1003A6005389F0438901C28DD28C758A66758CFC9F
:0703B600D2A9D2AFC2B922A7
:1003D300EF1FAC0670011E4C600A7D027CC7DCFE79
:0403E300DDFC80ECD1
:0103E70022F3
:0300000002018179
:0C018100787FE4F6D8FD7581310201C8DA
:10018D0002000EE493A3F8E493A34003F68001F27A
:10019D0008DFF48029E493A3F85407240CC8C33373
:1001AD00C4540F4420C8834004F456800146F6DF42
:1001BD00E4800B010204081020408090036EE47E61
:1001CD00019360BCA3FF543F30E509541FFEE49337
:1001DD00A360010ECF54C025E060A840B8E493A3FE
:1001ED00FAE493A3F8E493A3C8C582C8CAC583CA29
:1001FD00F0A3C8C582C8CAC583CADFE9DEE780BEE1
:01038A000072
:00000001FF
