:0300000002010FEB
:0C010F00787FE4F6D8FD75810C0200C377
:1000C3001200E375A0FE12000E8F0BE50B60F7B470
:1000D30001F4050AE50AC3940240EBE4F50A80E65D
:03000B0002006F81
:10006F00C0E0C0D075D000C000C007758A66758C1F
:10007F00FC0509E50970020508C394F4E50894012D
:10008F004029750800750900E50A700DAFA07801C9
:10009F00EF08800103D8FDF5A0E50AB4010DAFA06C
:1000AF007801EF08800123D8FDF5A0D007D000D04C
:0400BF00D0D0E0328B
:1000E3005389F0438901C28DD28C758A66758CFC65
:0700F300D2A9D2AFC2B9226D
:1000FA00EF1FAC0670011E4C600A7D027CC7DCFE55
:04010A00DDFC80ECAC
:01010E0022CE
:10000E00E4F50C20B1137F14FE1200FA30B1FD7F1F
:10001E00147E001200FA750C0120B0147F147E00BD
:10002E001200FA30B0FD7F147E001200FA750C0239
:10003E0020B2147F147E001200FA30B2FD7F147EBF
:10004E00001200FA750C0320B3147F147E00120008
:10005E00FA30B3FD7F147E001200FA750C04AF0C5B
:01006E00226F
:00000001FF
