:10094900543A0054483A00544C3A004F5648004F24
:07095900564C002020200095
:10046D001209CD1209607BFF7A0979497D017F015F
:10047D0012087D7B2E7D067F01120A207BFF7A09F3
:10048D00794C7D017F0212087D7BFF7A0979507DC1
:10049D00097F0212087DE4FF1207AD8F0F7F011255
:1004AD0007AD8F10E50FFB3395E0FA7519037D0449
:1004BD007F02120696E510FB3395E0FA7519037D60
:1004CD000C7F02120696120A3C8F0E1209F01207CB
:1004DD00DD8F148E138D128C11E4FFFEFDFCAB1419
:1004ED00AA13A912A8111201B4501E7B2D7D037FF2
:1004FD0001120A20AF14AE13AD12AC1112022D8FE2
:10050D000D8E0C8D0B8C0A80157B2B7D037F0112BC
:10051D000A2085140D85130C85120B85110AAF0D5C
:10052D00AE0CAD0BAC0A12027CAB07AA0675190214
:10053D007D047F011208DC7F007E407D1C7C46AB74
:10054D000DAA0CA90BA80A12000E12027CE47B1056
:10055D007A27F9F81203CD7519047D077F0112086A
:10056D00DCE50E607CB40102050FE50EB4020FD37D
:10057D00E5106480F8E50F6480984002150FE50ED4
:10058D00B4030FD3E5106480F8E50F648098400242
:10059D000510E50EB404021510E50FFB3395E0FAD6
:1005AD007519037D047F02120696E510FB3395E065
:1005BD00FA7519037D0C7F02120696E50FFD339532
:1005CD00E0FCE4FF1208597F057E001209B8E51022
:1005DD00FD3395E0FC7F011208597F057E0012095D
:1005ED00B8AC0FEC120248AB14AA13A912A8111241
:1005FD0001B4600A40087BFF7A0979548019AC1068
:10060D00EC120248AB14AA13A912A8111201B4508E
:10061D00107BFF7A0979587D0D7F0112087D020448
:10062D00D37BFF7A09795C7D0D7F0112087D020471
:01063D00D3E9
:03000B0002063EAC
:10063E00C0E0C0F0C083C082C0D075D000C000C082
:10064E0001C002C003C004C005C006C007758A669B
:10065E00758CFC0509E50970020508C39414E508BC
:10066E0094004009750800750900120709D007D0DB
:10067E0006D005D004D003D002D001D000D0D0D007
:08068E0082D083D0F0D0E032ED
:0609E100C2A58F80D2A721
:0809E7007F027EEFDEFEDFFC63
:0109EF0022E5
:0A0A1600C2A61209E1C2A70209E717
:1008A000CFCDCFCECCCE12033C7C007D0A12033CD0
:0408B000ED2430FF04
:0A08B400D2A61209E1C2A70209E76B
:10097700AE07BE0104ED148006BE0209ED243F4414
:0609870080FF120A162297
:1009CD007F38120A167F0C120A167F06120A167F3E
:0409DD0001020A16F3
:0A0A2000AC03120977AF040208B41A
:06087D008B158A16891795
:10088300120977E4FDAB15AA16A9178D82758300AB
:0C0893001202FDFF60061208B40D80E99F
:01089F002236
:0C077A007F0AEA24FFFDE434FFFC7E004F
:080786008E1C8F1D8C1E8D1FBF
:10078E007F017E00E4FBEBC3951FE51E6480F874C9
:0E079E008098500AAC1CAD1D12032A0B80E897
:0107AC00222A
:0408DC008A178B18D4
:1008E000120977AA19EAD39400400D12077AAC17BF
:0808F000AD181208A01A80EDFA
:0108F80022DD
:10069600120977C3EA64809480400B7F2B1208B45A
:1006A6008A1A8B1B800E7F2D1208B4C3E49BF51BA0
:1006B600E49AF51AAA19EAD39400400D12077AAC07
:0906C6001AAD1B1208A01A80ED08
:0106CF002208
:0406D0008A238B24CA
:1006D400120977AA25EAD3940040297F1012077CD7
:1006E400AC23AD24CFCDCFCECCCE12033CEF540FF0
:1006F400FEC3940AEE5004243080022437FF12080B
:04070400B41A80D1D2
:0107080022CE
:040742008A288B294D
:10074600120977AA2AEAD394004028EA24FFFDE496
:1007560034FFFC7F027E00120786AC28AD29CFCD80
:10076600CFCECCCE12033CEF54012430FF1208B496
:030776001A80D214
:01077900225D
:0D09F0001209157FCC1208327F4402083234
:1007DD001209157FCC1208327FBE1208321208F9A9
:1007ED008F151208F9EFFEE515FFFDAC06EC1202B0
:0B07FD0043E4FBFA79807841120117F9
:0108080022CD
:040A42007FDADFFE7A
:010A4600228D
:040A47007F1DDFFE32
:010A4B002288
:040A4C007F02DFFE48
:010A50002283
:040A51007F14DFFE31
:010A5500227E
:01000A0022D3
:10091500C2AFD2B7C2B7120A42D2B7120A47A2B7BC
:090925009200120A42D2AFA200B6
:01092E0022A6
:1009A300C2AFD2B7C2B7120A4CA20092B7120A5111
:0509B300D2B7D2AF2213
:10092F00C2AFD2B7C2B712000AD2B712000AA2B72B
:09093F009200120A51D2AFA2008D
:01094800228C
:02083200AD0710
:10083400E4FB74017E00A803088005C333CE33CEE5
:10084400D8F9FFEDF582EF558224FF92001209A337
:040854000BBB08DEF4
:01085800227D
:1008F900E4FEFD12092F500D7401A805088002C3FA
:0B09090033D8FC42060DBD08EAAF0623
:0109140022C0
:100859008F158C168D17120A2A7FA0120809120902
:10086900FDAF151208091209FDAF1712080912097F
:04087900FD02000379
:0207AD008F15A6
:1007AF00120A2A7FA01208091209FDAF15120809B3
:1007BF001209FD120A2A7FA11208091209FD120857
:0D07CF00BE8F16D200120A33120003AF16BF
:0107DC0022FA
:1009B800EF1FAC0670011E4C600A7D027CC7DCFE8E
:0409C800DDFC80ECE6
:0109CC002208
:090A2A00D2A0D2A1C2A0C2A122F7
:07000300C2A0D2A1D2A0228D
:02080900AD0739
:10080B00E4FB74807E00A803088006CEA2E713CE1B
:10081B0013D8F8FFEDF582EF558224FF92A0D2A1F9
:06082B00C2A10BBB08DCBA
:0108310022A4
:1008BE00E4FFD2A0FED2A130A00D7480A80608805D
:0D08CE0002C313D8FC4207C2A10EBE08E809
:0108DB0022FA
:090A3300A20092A0D2A1C2A122EE
:0C09FD00D2A0D2A1A2A09200C2A1A20030
:010A090022CA
:050A3C00AF2DE4F52DD3
:010A41002292
:10098D00E4FF20B1010F20B0027F0220B2027F03ED
:05099D0020B3027F04FD
:0109A2002232
:10070900852B2C12098D8F2BE52CB40107E52B7055
:1007190003752D01E52CB40207E52B7003752D0235
:10072900E52CB40307E52B7003752D03E52CB40400
:0807390007E52B7003752D0488
:010741002295
:100960005389F0438901C28DD28C758A66758CFCDF
:07097000D2A9D2AFC2B922E7
:10000E00EC4D6011E8497017ED33EC3304600DE4EC
:10001E00FCFFFEFD22E933E8330470F80202E81219
:10002E0002B358046009E4CC24815006285009021A
:10003E0002F22840030202EFC0E0EB4A7044B9809E
:10004E0006D0E0FB0202DEEF4E701CBD8008EBFF17
:10005E00EAFEE9FD80EBE98DF0A4FEE5F00200F783
:10006E00E9CDF9EAFEEBFFEF89F0A4FCE5F0CE89CD
:10007E00F0A42EFFE435F0CD89F0A42DFEE435F08A
:10008E008067EF4E7005BD80D780C3EF8BF0A4ACB8
:10009E00F0EE8BF0A42CFCE435F0F8EF8AF0A42CF3
:1000AE00E5F038FCE433CB8DF0A42CFCE5F03BF806
:1000BE00EE8AF0A42CFCE5F038F8E433CF89F0A4F6
:1000CE002CFCE5F038CF3400CE89F0A42FFFE5F0FC
:1000DE003EFEE433C98DF0A42EFEE5F039CD8AF054
:1000EE00A42FFFE5F03EFEE43DFD33D0E0FB5007CC
:1000FE000BBB000F0202F2EC2CFCEF33FFEE33FED3
:06010E00ED33FD0202CA00
:100114000202F2EC5D046005E8590470030202E88F
:100124001202B3580460F6EC4860F2EC7004FDFE71
:10013400FF22C860DB2481C85009C39860025006BE
:100144000202EF9850CAF582E9294B4A7005AB8246
:100154000202DE75F0007C1A7880C3EF9BEE9AED04
:1001640099400DC3EF9BFFEE9AFEED99FDE842F036
:10017400DC23ACF0D0E0FFD0E0FED0E0FDAB822089
:10018400E7101BEB60BAEC2CFCEF33FFEE33FEED13
:1001940033FD0202CAE803F830E705C0F075F00049
:1001A400EF2FFFEE33FEED33FD40B830E7C280AAF7
:1001B40074F8CC6480CCC86480C8F58204604FC3F2
:1001C400EB9FF5F0EA9E42F0E99D42F0E89C45F091
:1001D400603C501DE5825FFFE582D313CB5BCBF41B
:1001E4002B5582FB50280ABA002409B90020088044
:1001F4001DE5825BFBE582D313CF5FCFF4C3132FDE
:100204005582FF50090EBE00050DBD00010CC3EB65
:100214009FF5F0EA9E42F0E99D42F0E89C45F060CB
:0902240007CC4820E701B3EC22ED
:10022D00ED33EC33600A047003BD8004ECB2E7FCDF
:01023D00229E
:10023E0075F020800E75F010800575F0087D007E3B
:10024E00007F003392D530D50312045FEC3340109B
:10025E00EF33FFEE33FEED33FDEC33FCD5F0ED2244
:0E026E00E5F0247EA2D513CC92E7CDCEFF2280
:10027C00EDD2E7CD33EC3392D524814006E4FFFE7A
:10028C00FDFC22FCE4CFCECDCC24E0501174FF80D9
:10029C00EDC3CC13CCCD13CDCE13CECF13CF047076
:0702AC00F030D5DE02045F13
:1002B300E9D2E7C933E833F892D5EDD2E7CD33EC91
:0702C30033FC5002B2D5220A
:1002CA00EC30E7100FBF000C0EBE00080DBD000495
:1002DA000BEB6014A2D5EB13FCED92E7FD2274FF41
:1002EA00FCFDFEFF22E480F8A2D574FF13FC7D809A
:0302FA00E480EFAE
:03000000020A0AE7
:0C0A0A00787FE4F6D8FD75812D02046DA4
:1002FD00BB010CE58229F582E5833AF583E02250B6
:10030D0006E92582F8E622BBFE06E92582F8E222FF
:0D031D00E58229F582E5833AF583E4932219
:10032A00EF8DF0A4A8F0CF8CF0A428CE8DF0A42EE7
:02033A00FE22A1
:10033C00BC000BBE0029EF8DF084FFADF022E4CCA5
:10034C00F875F008EF2FFFEE33FEEC33FCEE9DEC6E
:10035C00984005FCEE9DFE0FD5F0E9E4CEFD22EDB4
:10036C00F8F5F0EE8420D21CFEADF075F008EF2FFE
:10037C00FFED33FD4007985006D5F0F222C398FDEF
:05038C000FD5F0EA228C
:1003910075F008758200EF2FFFEE33FECD33CDCC23
:1003A10033CCC58233C5829BED9AEC99E5829840A6
:1003B1000CF582EE9BFEED9AFDEC99FC0FD5F0D683
:1003C100E4CEFBE4CDFAE4CCF9A88222B800C1B9AD
:1003D1000059BA002DEC8BF084CFCECDFCE5F0CBEB
:1003E100F97818EF2FFFEE33FEED33FDEC33FCEB24
:1003F10033FB10D703994004EB99FB0FD8E5E4F9DF
:10040100FA227818EF2FFFEE33FEED33FDEC33FCCB
:10041100C933C910D7059BE99A4007EC9BFCE99ABF
:10042100F90FD8E0E4C9FAE4CCFB2275F010EF2F04
:10043100FFEE33FEED33FDCC33CCC833C810D70704
:100441009BEC9AE899400AED9BFDEC9AFCE899F83F
:0E0451000FD5F0DAE4CDFBE4CCFAE4C8F922D2
:0E045F00C3E49FFFE49EFEE49DFDE49CFC22AE
:00000001FF
