:10097400202000323020202D20202D0020203A205D
:03098400203A0016
:1005DD00120564E51EFB3395E0FA750C027D037F71
:1005ED0001120901E51FFB3395E0FA750C027D063A
:1005FD007F01120901E520FB3395E0FA750C027DB0
:10060D00097F01120901E521FB3395E0FA750C0212
:10061D007D017F02120901E522FB3395E0FA750C8D
:10062D00027D047F02120901E523FB3395E0FA7583
:09063D000C027D077F0202090195
:10000E00E51DB4020B051CE51C75F0068485F01C7D
:10001E00E51D640360030200E8741E251CF806D378
:10002E00E51E648094E34003E4F51ED3E51F64806F
:10003E00948C4003751F01E51F64016023E51F6466
:10004E0003601DE51F64056017E51F64076011E579
:10005E001F6408600BE51F640A6005E51FB40C0BF6
:10006E00D3E5206480949F404D8048E51F64046072
:10007E0011E51F6406600BE51F64096005E51FB4FA
:10008E000B0BD3E5206480949E402B8026E51FB495
:10009E000224E51E75F004120422AFF0EF700BD3AC
:1000AE00E5206480949D400E8009D3E52064809401
:1000BE009C4003752001D3E521648094974003E4AE
:1000CE00F521D3E522648094BB4003E4F522D3E509
:1000DE0023648094BB4003E4F523E51D64046003B0
:1000EE000201E3741E251CF816C3E51E648094807D
:1000FE005003751E63C3E51F648094815003751F02
:10010E000CE51F64016023E51F6403601DE51F6499
:10011E00056017E51F64076011E51F6408600BE5B5
:10012E001F640A6005E51FB40C17C3E520648094B4
:10013E0081500375201FD3E5206480949F40728008
:10014E006DE51F64046011E51F6406600BE51F6416
:10015E00096005E51FB40B17C3E520648094815038
:10016E000375201ED3E5206480949E4044803FE5B5
:10017E001F6402703CE51E75F004120422AFF0EF0E
:10018E007017C3E52064809481500375201DD3E55C
:10019E00206480949D401A8015C3E520648094816C
:1001AE00500375201CD3E5206480949C4003752079
:1001BE0001C3E521648094805003752117C3E522A5
:1001CE0064809480500375223BC3E5236480948041
:1001DE00500375233BE51C7014E51AB4010F7BFF29
:1001EE007A0979747D037F011208C08011E51EFB28
:1001FE003395E0FA750C027D037F01120901E51CAF
:10020E00B40114E51AB4010F7BFF7A0979747D06E7
:10021E007F011208C08011E51FFB3395E0FA750CC3
:10022E00027D067F01120901E51CB40214E51AB421
:10023E00010F7BFF7A0979747D097F011208C08056
:10024E0011E520FB3395E0FA750C027D097F011252
:10025E000901E51CB40314E51AB4010F7BFF7A09FA
:10026E0079747D017F021208C08011E521FB339560
:10027E00E0FA750C027D017F02120901E51CB4043F
:10028E0014E51AB4010F7BFF7A0979747D047F029D
:10029E001208C08011E522FB3395E0FA750C027D41
:1002AE00047F02120901E51CB40512E51AB4010D12
:1002BE007BFF7A0979747D077F020208C0E523FB74
:0F02CE003395E0FA750C027D077F0212090122B9
:100703001209601200031202DD12091E7BFF7A092F
:1007130079777D017F011208C07BFF7A0979807D9B
:10072300017F021208C01206468F1DE51DB4011693
:10073300E51BB40108E4F51B1202DD8009E51B701B
:1007430005751B01F51CE51B1460080470D8120520
:08075300DD80D312000E80CE00
:03000B000207E306
:1007E300C0E0C0D075D000C007758A66758CFC0563
:1007F30019E51970020518C394F4E5189401401221
:10080300751800751900E51A70047F0180027F00D6
:090813008F1AD007D0D0D0E032DA
:06098700C2A58F80D2A77B
:08098D007F027EEFDEFEDFFCBD
:01099500223F
:0A099600C2A6120987C2A702098D4C
:1008E300CFCDCFCECCCE1204837C007D0A120483FD
:0408F300ED2430FFC1
:0A08F700D2A6120987C2A702098DDC
:10093500AE07BE0104ED148006BE0209ED243F4456
:0609450080FF120996225A
:100960007F381209967F0C1209967F061209967F2E
:0409700001020996E1
:0A09A000AC03120935AF040208F79A
:0608C0008B088A09890A79
:1008C600120935E4FDAB08AA09A90A8D82758300D1
:0C08D600120444FF60061208F70D80E9D0
:0108E20022F3
:0C088D007F0AEA24FFFDE434FFFC7E003B
:080899008E0D8F0E8C0F8D10E7
:1008A1007F017E00E4FBEBC39510E50F6480F874D3
:0E08B1008098500AAC0DAD0E1204710B80E859
:0108BF002216
:040901008A0A8B0BC8
:10090500120935AA0CEAD39400400D12088DAC0AE1
:08091500AD0B1208E31A80ED9E
:01091D0022B7
:1007A900120935C3EA64809480400B7F2B1208F745
:1007B9008A168B17800E7F2D1208F7C3E49BF51755
:1007C900E49AF516AA15EAD39400400D12088DACE7
:0907D90016AD171208E31A80EDB9
:0107E20022F4
:04081C008A268B2776
:10082000120935AA28EAD3940040297F1012088FB4
:10083000AC26AD27CFCDCFCECCCE120483EF540F54
:10084000FEC3940AEE5004243080022437FF1208BD
:04085000F71A80D142
:010854002281
:040855008A2B8B2C33
:10085900120935AA2DEAD394004028EA24FFFDE4C1
:1008690034FFFC7F027E00120899AC2BAD2CCFCD52
:10087900CFCECCCE120483EF54012430FF1208F7F7
:030889001A80D200
:01088C002249
:0809AA00061E18011C0E0000DE
:05000300C2B5C2B622E7
:0506A7002DFDEE3CFCFE
:0606AC008C088D09AB076C
:1006B200D2B5E4FD74017E00A805088005C333CEDF
:1006C20033CED8F9FFEBF582EF558224FF92B4D2F4
:1006D200B6C2B60DBD08DDE4FD74017E00A80508B2
:1006E2008005C333CE33CED8F9FFE5085EFEE509B7
:1006F2005F4E24FF92B4D2B6C2B60DBD08DBC2B5BE
:0107020022D4
:02075B00AD07E8
:10075D00E4F9430501D2B5FB74017E00A8030880BE
:10076D0005C333CE33CED8F9FFEDF582EF55822494
:10077D00FF92B4C2B6D2B60BBB08DDE4FBD2B6C253
:10078D00B630B40D7401A803088002C333D8FC42FF
:0B079D00010BBB08E8C2B5C2B4AF01FD
:0107A800222E
:1002DD00E4FDFC7F8E1206ACE51E75F00A120422B9
:1002ED00FF3395E0FEEFC4F8540FC868FFEEC45419
:1002FD00F048FEE51E75F00A120422ADF0ED3395BF
:10030D00E0FCEF7F8C1206A7E51F75F00A120422A0
:10031D00FF3395E0FEEFC4F8540FC868FFEEC454E8
:10032D00F048FEE51F75F00A120422ADF0ED33958D
:10033D00E0FCEF7F881206A7E52075F00A12042273
:10034D00FF3395E0FEEFC4F8540FC868FFEEC454B8
:10035D00F048FEE52075F00A120422ADF0ED33955C
:10036D00E0FCEF2DFDEE3CFC7F861206ACE5217521
:10037D00F00A120422FF3395E0FEEFC4F8540FC8C3
:10038D0068FFEEC454F048FEE52175F00A12042210
:10039D00ADF0ED3395E0FCEF2DFDEE3CFC7F8412CE
:1003AD0006ACE52275F00A120422FF3395E0FEEF4C
:1003BD00C4F8540FC868FFEEC454F048FEE522752A
:1003CD00F00A120422ADF0ED3395E0FCEF2DFDEEB9
:1003DD003CFC7F821206ACE52375F00A120422FF65
:1003ED003395E0FEEFC4F8540FC868FFEEC454F027
:1003FD0048FEE52375F00A120422ADF0ED3395E0C9
:10040D00FCEF2DFDEE3CFC7F801206AC7D807C0068
:05041D007F8E0206AC19
:100564007F8C12075BEFC4540F75F00AA4FEEF549E
:100574000F2EF51E7F8812075BEFC4540F75F00A27
:10058400A4FEEF540F2EF51F7F8612075BEFC454B1
:100594000F75F00AA4FEEF540F2EF5207F84120786
:1005A4005BEFC4540F75F00AA4FEEF540F2EF5212F
:1005B4007F8212075BEFC4540F75F00AA4FEEF5458
:1005C4000F2EF5227F8012075BEFC4540F75F00ADB
:0805D400A4FEEF540F2EF523E5
:0105DC0022FC
:10094B00EF1FAC0670011E4C600A7D027CC7DCFEFB
:04095B00DDFC80EC53
:01095F002275
:10064600E4F50820B1137F14FE12094B30B1FD7F8B
:10065600147E0012094B75080120B0147F147E0029
:1006660012094B30B0FD7F147E0012094B7508024B
:1006760020B2147F147E0012094B30B2FD7F147E27
:100686000012094B75080320B3147F147E0012096B
:100696004B30B3FD7F147E0012094B750804AF087A
:0106A6002231
:10091E005389F0438901C28DD28C758A66758CFC21
:07092E00D2A9D2AFC2B92229
:030000000204D81F
:0C04D800787FE4F6D8FD75812D02051F29
:10042200C2D530F707B2D563F0FF05F030E70CB262
:10043200D5F4048463F0FF05F080018430D502F422
:02044200042292
:10044400BB010CE58229F582E5833AF583E022506D
:1004540006E92582F8E622BBFE06E92582F8E222B7
:0D046400E58229F582E5833AF583E49322D1
:10047100EF8DF0A4A8F0CF8CF0A428CE8DF0A42E9F
:02048100FE2259
:10048300BC000BBE0029EF8DF084FFADF022E4CC5D
:10049300F875F008EF2FFFEE33FEEC33FCEE9DEC26
:1004A300984005FCEE9DFE0FD5F0E9E4CEFD22ED6C
:1004B300F8F5F0EE8420D21CFEADF075F008EF2FB6
:1004C300FFED33FD4007985006D5F0F222C398FDA7
:0504D3000FD5F0EA2244
:1004E400020703E493A3F8E493A34003F68001F224
:1004F40008DFF48029E493A3F85407240CC8C33319
:10050400C4540F4420C8834004F456800146F6DFE7
:10051400E4800B01020408102040809009AAE47EC4
:10052400019360BCA3FF543F30E509541FFEE493DC
:10053400A360010ECF54C025E060A840B8E493A3A3
:10054400FAE493A3F8E493A3C8C582C8CAC583CACE
:10055400F0A3C8C582C8CAC583CADFE9DEE780BE86
:0109B2000044
:00000001FF
