:10017B00E4FDFC7F0112008F1200F28F1DE51D6064
:10018B00F77F647E00120153E51DFD7C007F011299
:04019B00008F80E46D
:10019F00EF1FAC0670011E4C600A7D027CC7DCFEAF
:0401AF00DDFC80EC07
:0101B3002229
:1000F200E4F51920B1137F14FE12019F30B1FD7F88
:10010200147E0012019F75190120B0147F147E0025
:1001120012019F30B0FD7F147E0012019F751902FB
:1001220020B2147F147E0012019F30B2FD7F147E34
:100132000012019F75190320B3147F147E0012016F
:100142009F30B3FD7F147E0012019F751904AF1911
:01015200228A
:1001B40011083F065B4F666D7D077F6F777C395E64
:0301C4007971004E
:10008F00EF14B4080050549000A475F003A4C58376
:10009F0025F0C583730200BC0200C00200C4020039
:1000AF00C80200CC0200D40200DC0200E4D2A4801B
:1000BF000ED2A48012D2A48016D2A4801AC2A4D2C7
:1000CF00A3D2A28016C2A4D2A3C2A2800EC2A4C27F
:1000DF00A3D2A28006C2A4C2A3C2A274082DF8E6BE
:0300EF00F5802277
:040153008E198F1A58
:10015700E4F51BF51CC3E51C951AE51B951950130F
:10016700B2A57F017E0012019F051CE51C70E60504
:030177001B80E208
:01017A002262
:03000000020003F8
:0C000300787FE4F6D8FD75811D02004AEC
:10000F0002017BE493A3F8E493A34003F68001F28B
:10001F0008DFF48029E493A3F85407240CC8C333F2
:10002F00C4540F4420C8834004F456800146F6DFC1
:10003F00E4800B01020408102040809001B4E47E9C
:10004F00019360BCA3FF543F30E509541FFEE493B6
:10005F00A360010ECF54C025E060A840B8E493A37D
:10006F00FAE493A3F8E493A3C8C582C8CAC583CAA8
:10007F00F0A3C8C582C8CAC583CADFE9DEE780BE60
:0101C7000037
:00000001FF
