:10015E001201D41200FD8F1AE51A64017031051CCC
:10016E00E51C75F0058485F01CE51C7002F519E59B
:10017E001CB40103751919E51CB40203751932E597
:10018E001CB4030375194BE51CB40403751964E51F
:0B019E001CFD7C007F0112009A80B85D
:03000B000201A946
:1001A900C0E0C0F0C0D0758AA4758CFF051BE51BA3
:1001B90075F0648485F01BE51BC395195004D29032
:0B01C9008002C290D0D0D0F0D0E03215
:1001EB00EF1FAC0670011E4C600A7D027CC7DCFE63
:0401FB00DDFC80ECBB
:0101FF0022DD
:1000FD00E4F51D20B1137F14FE1201EB30B1FD7F2D
:10010D00147E001201EB751D0120B0147F147E00CA
:10011D001201EB30B0FD7F147E001201EB751D0254
:10012D0020B2147F147E001201EB30B2FD7F147EDD
:10013D00001201EB751D0320B3147F147E00120114
:10014D00EB30B3FD7F147E001201EB751D04AF1D66
:01015D00227F
:1002000011083F065B4F666D7D077F6F777C395E17
:0302100079710001
:10009A00EF14B4080050549000AF75F003A4C58360
:1000AA0025F0C583730200C70200CB0200CF02000D
:1000BA00D30200D70200DF0200E70200EFD2A480D9
:1000CA000ED2A48012D2A48016D2A4801AC2A4D2BC
:1000DA00A3D2A28016C2A4D2A3C2A2800EC2A4C274
:1000EA00A3D2A28006C2A4C2A3C2A274082DF8E6B3
:0300FA00F580226C
:1001D4005389F0438901C28DD28C758AA4758CFF32
:0701E400D2A9D2AFC2B9227B
:0300000002000EED
:0C000E00787FE4F6D8FD75811D020055D6
:10001A0002015EE493A3F8E493A34003F68001F29D
:10002A0008DFF48029E493A3F85407240CC8C333E7
:10003A00C4540F4420C8834004F456800146F6DFB6
:10004A00E4800B0102040810204080900200E47E44
:10005A00019360BCA3FF543F30E509541FFEE493AB
:10006A00A360010ECF54C025E060A840B8E493A372
:10007A00FAE493A3F8E493A3C8C582C8CAC583CA9D
:10008A00F0A3C8C582C8CAC583CADFE9DEE780BE55
:0102130000EA
:00000001FF
