:1001F60012037F12036D120334EF605D12037C8FCE
:1002060025E525B41603E4F526E525B40C03752685
:1002160001E525B41803752602E525B45E037526A7
:1002260003E525B40803752604E5267004FF1203CA
:1002360082E526B401057F19120382E526B402057C
:100246007F32120382E526B403057F4B120382E553
:1002560026B404057F64120382E526FD7C007F0137
:0502660012026B809103
:10000600EF1FAC0670011E4C600A7D027CC7DCFE49
:04001600DDFC80ECA1
:01001A0022C3
:1003100011083F065B4F666D7D077F6F777C395E06
:03032000797100F0
:10026B00EF14B40800505490028075F003A4C583BA
:10027B0025F0C5837302029802029C0202A00202BF
:10028B00A40202A80202B00202B80202C0D2A480E9
:10029B000ED2A48012D2A48016D2A4801AC2A4D2E9
:1002AB00A3D2A28016C2A4D2A3C2A2800EC2A4C2A1
:1002BB00A3D2A28006C2A4C2A3C2A274082DF8E6E0
:0302CB00F5802299
:1002F90053890F438910C28FD28E758BA4758DFFD8
:07030900D2ABD2AFC2BB2250
:0B034E00D288C289D2A8D2AFD2B82258
:06036D0012034E020324FE
:0D033400E5206006E4F5207F01227F002215
:0D034100E51E6006E4F51E7F01227F00220C
:03037900AF1D2293
:03037C00AF1C2291
:0300030002001EDA
:10001E00C0E0C0F0C083C082C0D075D000C000C0A8
:10002E0001C002C003C004C005C006C007E51970B8
:10003E000CFFFE1203597F011203738049E5196408
:10004E000170491203648E1A8F1BE4FFFE120359CE
:10005E00D3E51B94A6E51A942E4010E51B948EE56D
:10006E001A9432500675190202014FD3E51B948C77
:10007E00E51A94264010E51B9474E51A942A50064E
:10008E00751E0102014775190102014FE51964023F
:10009E00600302014F1203648E1A8F1BE4FFFE12DF
:1000AE000359D3E51B9414E51A9402402CE51B94D6
:1000BE00FCE51A94055022E51F131313541F242137
:1000CE00F8C000E6FFE51F5407FE7401A80608807D
:1000DE0002C333D8FCF45F8034D3E51B9426E51AB3
:1000EE0094064030E51B940EE51A940A5026E51F3F
:1000FE00131313541F2421F8C000E6FFE51F540705
:10010E00FE7401A806088002C333D8FC4FD000F657
:10011E00051F8006751F00751901E51FC394204049
:10012E0020751F00E522F4B5210FE524F4B523094F
:10013E0085211D85231C752001E4FF12037375199B
:10014E0000D007D006D005D004D003D002D001D005
:0C015E0000D0D0D082D083D0F0D0E032AE
:100324005389F0438901C28DC28CE4F58AF58C228D
:0B035900AD07AC068C8CAF058F8A222C
:09036400AF8CEFFEAD8AEDFF2223
:06037300EF24FF928C2232
:03037F000202F97E
:030382008F2722A0
:03001B000202CE10
:1002CE00C0E0C0F0C0D0758BA4758DFF0528E52861
:1002DE0075F0648485F028E528C395275004D290E4
:0B02EE008002C290D0D0D0F0D0E032EF
:0300000002016A90
:0C016A00787FE4F6D8FD7581280201B111
:100176000201F6E493A3F8E493A34003F68001F2A8
:1001860008DFF48029E493A3F85407240CC8C3338A
:10019600C4540F4420C8834004F456800146F6DF59
:1001A600E4800B0102040810204080900310E47ED6
:1001B600019360BCA3FF543F30E509541FFEE4934E
:1001C600A360010ECF54C025E060A840B8E493A315
:1001D600FAE493A3F8E493A3C8C582C8CAC583CA40
:1001E600F0A3C8C582C8CAC583CADFE9DEE780BEF8
:0103230000D9
:00000001FF
