:10009A00204A250000F921F980F9E1FA36FA8CFAAA
:1000AA00D8FB23FB68FBAAFBE9FC23FC5BFC8FFC67
:1000BA00C0FCEFFD1BFD45FD6CFD91FDB4FDD5FDBA
:1000CA00F4FE12FE2EFE47FE60FE78FE8EFEA2FEB3
:1000DA00B6FEC9FEDAFEEBFEFAFF09FF171D080D90
:1000EA00010D011401140116011601140212011264
:0C00FA0001110111010F010F010D02FFA7
:1001070012016F7408256FF8E6FFF460238F7005FE
:100117006F7408256FF8E675F0FAA4FFAEF01201C8
:1001270086056FC28C7F057E00120186D28C80D334
:04013700C28C80CF27
:03000B0002013BB4
:10013B00C0E0C0D075D000C000C006E57025E0243B
:10014B0025F8E6FE08E64E6012E57025E02425F85A
:10015B00E6FE08E6F58AEEF58CB2A5D006D000D007
:04016B00D0D0E032DE
:10018600EF1FAC0670011E4C600A7D027CC7DCFEC8
:04019600DDFC80EC20
:01019A002242
:10016F005389F0438901C28DD28C758A66758CFCD8
:07017F00D2A9D2AFC2B922E0
:0300000002000EED
:0C000E00787FE4F6D8FD75817002005583
:10001A00020107E493A3F8E493A34003F68001F2F4
:10002A0008DFF48029E493A3F85407240CC8C333E7
:10003A00C4540F4420C8834004F456800146F6DFB6
:10004A00E4800B010204081020408090009AE47EAC
:10005A00019360BCA3FF543F30E509541FFEE493AB
:10006A00A360010ECF54C025E060A840B8E493A372
:10007A00FAE493A3F8E493A3C8C582C8CAC583CA9D
:10008A00F0A3C8C582C8CAC583CADFE9DEE780BE55
:0101060000F8
:00000001FF
