:10035C001203A21200038F25E52560F7FB7A0075C6
:0B036C000C027D017F0112033F80E8BE
:10038D00EF1FAC0670011E4C600A7D027CEFDCFE97
:04039D00DDFC80EC17
:0103A1002239
:0603B600C2A58F80D2A752
:0803BC007F027EEFDEFEDFFC94
:0103C4002216
:0A03D100C2A61203B6C2A70203BCC5
:10032100CFCDCFCECCCE1201CB7C007D0A1201CB3A
:04033100ED2430FF88
:0A033500D2A61203B6C2A70203BC51
:10037700AE07BE0104ED148006BE0209ED243F441A
:0603870080FF1203D122E9
:1003A2007F381203D17F0C1203D17F061203D17F53
:0403B200010203D170
:0A03DB00AC03120377AF04020335F0
:0602FE008B228A238924F3
:10030400120377E4FDAB22AA23A9248D827583000E
:0C03140012018CFF60061203350D80E919
:0103200022BA
:0C02CB007F0AEA24FFFDE434FFFC7E0003
:0802D7008E0D8F0E8C0F8D10AF
:1002DF007F017E00E4FBEBC39510E50F6480F8749B
:0E02EF008098500AAC0DAD0E1201B90B80E8DC
:0102FD0022DE
:04033F008A0A8B0B90
:10034300120377AA0CEAD39400400D1202CBAC0A35
:08035300AD0B1203211A80ED2D
:01035B00227F
:10022000120377C3EA64809480400B7F2B1203355E
:100230008A168B17800E7F2D120335C3E49BF517AA
:10024000E49AF516AA15EAD39400400D1202CBAC3D
:0902500016AD171203211A80ED0E
:010259002282
:04025A008A1A8B1B56
:10025E00120377AA1CEAD3940040297F101202CD14
:10026E00AC1AAD1BCFCDCFCECCCE1201CBEF540FEF
:10027E00FEC3940AEE5004243080022437FF12038A
:04028E00351A80D1CC
:010292002249
:040293008A1F8B2013
:10029700120377AA21EAD394004028EA24FFFDE459
:1002A70034FFFC7F027E001202D7AC1FAD20CFCDFA
:1002B700CFCECCCE1201CBEF54012430FF12033541
:0302C7001A80D2C8
:0102CA002211
:10000300E4F5087590FFC2932097137F14FE120343
:100013008D3097FD7F147E0012038D7508012096A5
:10002300147F147E0012038D3096FD7F147E001220
:10003300038D7508052095147F147E0012038D30FF
:1000430095FD7F147E0012038D7508092094147F9B
:10005300147E0012038D3094FD7F147E0012038DF5
:1000630075080D7590FFC2922097147F147E0012BD
:10007300038D3097FD7F147E0012038D75080220D7
:1000830096147F147E0012038D3096FD7F147E003C
:1000930012038D7508062095147F147E0012038DBC
:1000A3003095FD7F147E0012038D75080A20941489
:1000B3007F147E0012038D3094FD7F147E001203A3
:1000C3008D75080E7590FFC2912097147F147E00E2
:1000D30012038D3097FD7F147E0012038D75080384
:1000E3002096147F147E0012038D3096FD7F147EBC
:1000F3000012038D7508072095147F147E001203E8
:100103008D3095FD7F147E0012038D75080B2094AE
:10011300147F147E0012038D3094FD7F147E001231
:10012300038D75080F7590FFC2902097147F147E7E
:100133000012038D3097FD7F147E0012038D750826
:10014300042096147F147E0012038D3096FD7F14D5
:100153007E0012038D7508082095147F147E00120B
:10016300038D3095FD7F147E0012038D75080C20DE
:1001730094147F147E0012038D3094FD7F147E004F
:0801830012038D750810AF088E
:01018B002251
:030000000203C533
:0C03C500787FE4F6D8FD75812502035C0A
:10018C00BB010CE58229F582E5833AF583E0225028
:10019C0006E92582F8E622BBFE06E92582F8E22272
:0D01AC00E58229F582E5833AF583E493228C
:1001B900EF8DF0A4A8F0CF8CF0A428CE8DF0A42E5A
:0201C900FE2214
:1001CB00BC000BBE0029EF8DF084FFADF022E4CC18
:1001DB00F875F008EF2FFFEE33FEEC33FCEE9DECE1
:1001EB00984005FCEE9DFE0FD5F0E9E4CEFD22ED27
:1001FB00F8F5F0EE8420D21CFEADF075F008EF2F71
:10020B00FFED33FD4007985006D5F0F222C398FD61
:05021B000FD5F0EA22FE
:00000001FF
