:1004390050617373776F72643A004F4B20004552D5
:0204490052005F
:10018C001204257BFF7A0479397D017F0112039CCF
:10019C001200038F24E52460F7D3940A502DAE226D
:1001AC00AF237C007D0A1202578E228F23E5247523
:1001BC00F00A84E5F02523F523E43522F522750CAD
:1001CC0004AB23FA7D017F021203DDE524640B707E
:1001DC0032E523B41D0DE522B40A087BFF7A0479BD
:1001EC004380067BFF7A0479477D0E7F0112039CC6
:1001FC00E4F522F523750C04AB23AA227D017F02C2
:10020C001203DDE524640C7087F522F523750C04CC
:0E021C00AB23AA227D017F021203DD02019CAA
:10041000EF1FAC0670011E4C600A7D027CEFDCFE13
:04042000DDFC80EC93
:0104240022B5
:06044B00C2A58F80D2A7BC
:080451007F027EEFDEFEDFFCFE
:010459002280
:0A046600C2A612044BC2A702045103
:1003BF00CFCDCFCECCCE1202697C007D0A1202695E
:0403CF00ED2430FFEA
:0A03D300D2A612044BC2A702045187
:1003FA00AE07BE0104ED148006BE0209ED243F4497
:06040A0080FF12046622CF
:100425007F381204667F0C1204667F061204667F0D
:040435000102046656
:0A047000AC031203FAAF040203D339
:06039C008B088A09890AA2
:1003A2001203FAE4FDAB08AA09A90A8D827583003B
:0C03B20012022AFF60061203D30D80E93E
:0103BE00221C
:0C0369007F0AEA24FFFDE434FFFC7E0064
:080375008E0D8F0E8C0F8D1010
:10037D007F017E00E4FBEBC39510E50F6480F874FC
:0E038D008098500AAC0DAD0E1202570B80E89E
:01039B00223F
:0403DD008A0A8B0BF2
:1003E1001203FAAA0CEAD39400400D120369AC0A75
:0803F100AD0B1203BF1A80EDF1
:0103F90022E1
:1002BE001203FAC3EA64809480400B7F2B1203D39F
:1002CE008A168B17800E7F2D1203D3C3E49BF5176E
:1002DE00E49AF516AA15EAD39400400D120369AC00
:0902EE0016AD171203BF1A80EDD2
:0102F70022E4
:0402F8008A1A8B1BB8
:1002FC001203FAAA1CEAD3940040297F1012036B54
:10030C00AC1AAD1BCFCDCFCECCCE120269EF540FB1
:10031C00FEC3940AEE5004243080022437FF1203EB
:04032C00D31A80D18F
:0103300022AA
:040331008A1F8B2074
:100335001203FAAA21EAD394004028EA24FFFDE437
:1003450034FFFC7F027E00120375AC1FAD20CFCDBC
:10035500CFCECCCE120269EF54012430FF1203D365
:030365001A80D229
:010368002272
:10000300E4F5087590FFC2932097137F14FE120442
:10001300103097FD7F147E0012041075080120969E
:10002300147F147E001204103096FD7F147E00129C
:1000330004107508052095147F147E0012041030F7
:1000430095FD7F147E001204107508092094147F17
:10005300147E001204103094FD7F147E00120410ED
:1000630075080D7590FFC2922097147F147E0012BD
:1000730004103097FD7F147E0012041075080220CF
:1000830096147F147E001204103096FD7F147E00B8
:100093001204107508062095147F147E00120410B4
:1000A3003095FD7F147E0012041075080A20941405
:1000B3007F147E001204103094FD7F147E0012041E
:1000C3001075080E7590FFC2912097147F147E005F
:1000D3001204103097FD7F147E001204107508037C
:1000E3002096147F147E001204103096FD7F147E38
:1000F300001204107508072095147F147E00120463
:10010300103095FD7F147E0012041075080B2094A7
:10011300147F147E001204103094FD7F147E0012AD
:10012300041075080F7590FFC2902097147F147EFA
:10013300001204103097FD7F147E0012041075081E
:10014300042096147F147E001204103096FD7F1451
:100153007E001204107508082095147F147E001287
:1001630004103095FD7F147E0012041075080C20D6
:1001730094147F147E001204103094FD7F147E00CB
:08018300120410750810AF080A
:01018B002251
:0300000002045A9D
:0C045A00787FE4F6D8FD75812402018C47
:10022A00BB010CE58229F582E5833AF583E0225089
:10023A0006E92582F8E622BBFE06E92582F8E222D3
:0D024A00E58229F582E5833AF583E49322ED
:10025700EF8DF0A4A8F0CF8CF0A428CE8DF0A42EBB
:02026700FE2275
:10026900BC000BBE0029EF8DF084FFADF022E4CC79
:10027900F875F008EF2FFFEE33FEEC33FCEE9DEC42
:10028900984005FCEE9DFE0FD5F0E9E4CEFD22ED88
:10029900F8F5F0EE8420D21CFEADF075F008EF2FD2
:1002A900FFED33FD4007985006D5F0F222C398FDC3
:0502B9000FD5F0EA2260
:00000001FF
