:100041000000000000000000000000FF0810100F79
:10005100000215150F01001F0810100F00091515DA
:100061001512000E1515150C001F081010000000C8
:08007100000000000000000087
:10000300E4F509F50A1200E9E4F508E50825099085
:10001300004193FD7C00AF081200A60508E508C364
:10002300940840E7050AE50AC3940A40DBE4F50AAD
:0E0033000509E509D3943040CFE4F50980CAF1
:1000C800EF1FAC0670011E4C600A7D027CC7DCFE87
:0400D800DDFC80ECDF
:0100DC002201
:0500E900C2B6C2B52201
:02007900AD07D1
:10007B00E4FB74807E00A803088006CEA2E713CEB3
:10008B0013D8F8FFEDF582EF558224FF92B4D2B668
:0A009B00C2B60BBB08DCD2B5C2B53B
:0100A5002238
:1000A600AA07AF05120079AF027480A8070880027C
:1000B600C313D8FCF4F5807F017E001200C875805A
:0200C600FF2217
:030000000200DD1E
:0C00DD00787FE4F6D8FD75810A0200036C
:00000001FF
