:03000000020003F8
:0C000300787FE4F6D8FD75811802004AF1
:1001330011083F065B4F666D7D077F6F777C395EE5
:03014300797100CF
:10011E00EF1FAC0670011E4C600A7D027CC7DCFE30
:04012E00DDFC80EC88
:0101320022AA
:04008F007D067C006E
:10009300EF14B4080050549000A875F003A4C5836E
:1000A30025F0C583730200C00200C40200C8020029
:1000B300CC0200D00200D80200E00200E8D2A48003
:1000C3000ED2A48012D2A48016D2A4801AC2A4D2C3
:1000D300A3D2A28016C2A4D2A3C2A2800EC2A4C27B
:1000E300A3D2A28006C2A4C2A3C2A274082DF8E6BA
:0D00F300F5807F017E0012011EE4F58022E1
:100100007F0112008F7F0212008F7D067C007F032B
:0E0110001200937D067C007F0412009380E2B3
:10000F00020100E493A3F8E493A34003F68001F206
:10001F0008DFF48029E493A3F85407240CC8C333F2
:10002F00C4540F4420C8834004F456800146F6DFC1
:10003F00E4800B0102040810204080900133E47E1D
:10004F00019360BCA3FF543F30E509541FFEE493B6
:10005F00A360010ECF54C025E060A840B8E493A37D
:10006F00FAE493A3F8E493A3C8C582C8CAC583CAA8
:10007F00F0A3C8C582C8CAC583CADFE9DEE780BE60
:0101460000B8
:00000001FF
