:0E03D3004144442020436D6420204E756D008F
:1001E6001203A01204407BFF7A0379D37D017F01BD
:1001F60012032C1203E1EF60FA1203EEEF60F41221
:1002060004468F301204498F2FE530FB7A007518AB
:10021600037D017F0212036DE52FFB7A007518033B
:100226007D067F0212036DE52FB41504152E800797
:10023600E52FB40902052EE52EFB7A007518037D1D
:080246000B7F0212036D80AB77
:0603C400C2A58F80D2A744
:0803CA007F027EEFDEFEDFFC86
:0103D2002208
:0A041D00C2A61203C4C2A70203CA5C
:10034F00CFCDCFCECCCE1201917C007D0A12019180
:04035F00ED2430FF5A
:0A036300D2A61203C4C2A70203CA07
:10038A00AE07BE0104ED148006BE0209ED243F4407
:06039A0080FF12041D2289
:1003A0007F3812041D7F0C12041D7F0612041D7F6E
:0403B0000102041D25
:0A042700AC0312038AAF0402036362
:06032C008B148A158916EE
:1003320012038AE4FDAB14AA15A9168D82758300F7
:0C034200120152FF60061203630D80E9F7
:01034E00228C
:0C02F9007F0AEA24FFFDE434FFFC7E00D5
:080305008E198F1A8C1B8D1C50
:10030D007F017E00E4FBEBC3951CE51B6480F87454
:0E031D008098500AAC19AD1A12017F0B80E8CF
:01032B0022AF
:04036D008A168B174A
:1003710012038AAA18EAD39400400D1202F9AC16AE
:08038100AD1712034F1A80EDC5
:010389002251
:10024E0012038AC3EA64809480400B7F2B120363EF
:10025E008A228B23800E7F2D120363C3E49BF5232A
:10026E00E49AF522AA21EAD39400400D1202F9ACC9
:09027E0022AD2312034F1A80ED9A
:010287002254
:040288008A268B2710
:10028C0012038AAA28EAD3940040297F101202FB99
:10029C00AC26AD27CFCDCFCECCCE120191EF540FE3
:1002AC00FEC3940AEE5004243080022437FF12035C
:0402BC00631A80D170
:0102C000221B
:0402C1008A2B8B2CCD
:1002C50012038AAA2DEAD394004028EA24FFFDE40C
:1002D50034FFFC7F027E00120305AC2BAD2CCFCD85
:1002E500CFCECCCE120191EF54012430FF1203631F
:0302F5001A80D29A
:0102F80022E3
:0B040700D288C289D2A8D2AFD2B8229E
:1003B4005389F0438901C28DC28CE4F58AF58C22FD
:0B041200AD07AC068C8CAF058F8A2272
:09043100AF8CEFFEAD8AEDFF2255
:06043A00EF24FF928C226A
:060440001204070203B4E0
:0D03E100E50F6006E4F50F7F01227F00228A
:0D03EE00E50D6006E4F50D7F01227F002281
:03044600AF0C22D6
:03044900AF0B22D4
:03000300020006F2
:10000600C0E0C0F0C083C082C0D075D000C000C0C0
:1000160001C002C003C004C005C006C007E50870E1
:100026000CFFFE1204127F0112043A8049E50864AF
:100036000170491204318E098F0AE4FFFE12041280
:10004600D3E50A94A6E509942E4010E50A948EE5B8
:100056000994325006750802020137D3E50A948CDA
:10006600E50994264010E50A9474E509942A500699
:10007600750D0102012F750801020137E5086402BA
:1000860060030201371204318E098F0AE4FFFE1263
:100096000412D3E50A9414E5099402402CE50A9467
:1000A600FCE50994055022E50E131313541F241082
:1000B600F8C000E6FFE50E5407FE7401A8060880A6
:1000C60002C333D8FCF45F8034D3E50A9426E509ED
:1000D60094064030E50A940EE509940A5026E50E8A
:1000E600131313541F2410F8C000E6FFE50E54073F
:1000F600FE7401A806088002C333D8FC4FD000F670
:10010600050E8006750E00750801E50EC3942040A5
:1001160020750E00E511F4B5100FE513F4B51209BC
:1001260085100C85120B750F01E4FF12043A750851
:1001360000D007D006D005D004D003D002D001D01D
:0C01460000D0D0D082D083D0F0D0E032C6
:030000000203FBFD
:0C03FB00787FE4F6D8FD7581300201E641
:10015200BB010CE58229F582E5833AF583E0225062
:1001620006E92582F8E622BBFE06E92582F8E222AC
:0D017200E58229F582E5833AF583E49322C6
:10017F00EF8DF0A4A8F0CF8CF0A428CE8DF0A42E94
:02018F00FE224E
:10019100BC000BBE0029EF8DF084FFADF022E4CC52
:1001A100F875F008EF2FFFEE33FEEC33FCEE9DEC1B
:1001B100984005FCEE9DFE0FD5F0E9E4CEFD22ED61
:1001C100F8F5F0EE8420D21CFEADF075F008EF2FAB
:1001D100FFED33FD4007985006D5F0F222C398FD9C
:0501E1000FD5F0EA2239
:00000001FF
