:0D02E30041444A20204E5443202052470041
:1000FB001202C07BFF7A0279E37D017F0112023786
:10010B007F941200978E228F23750C04AB23AA22A7
:10011B007D017F021202787FD41200978E228F23EB
:10012B00750C04AB23AA227D067F021202787FA4F2
:10013B001200978E228F23750C04AB23AA227D0B02
:0E014B007F021202787F0A7E001202AB80B2A1
:1002AB00EF1FAC0670011E4C600A7D027CC7DCFEA2
:0402BB00DDFC80ECFA
:0102BF00221C
:0602D400C2A58F80D2A735
:0802DA007F027EEFDEFEDFFC77
:0102E20022F9
:0A02FC00C2A61202D4C2A70202DA61
:10025A00CFCDCFCECCCE1200427C007D0A12004216
:04026A00ED2430FF50
:0A026E00D2A61202D4C2A70202DADF
:10029500AE07BE0104ED148006BE0209ED243F44FD
:0602A50080FF1202FC22A2
:1002C0007F381202FC7F0C1202FC7F061202FC7FB8
:0402D000010202FC29
:0A030600AC03120295AF0402026E70
:060237008B088A09890A08
:10023D00120295E4FDAB08AA09A90A8D8275830007
:0C024D00120003FF600612026E0D80E933
:010259002282
:0C0204007F0AEA24FFFDE434FFFC7E00CA
:080210008E0D8F0E8C0F8D1076
:100218007F017E00E4FBEBC39510E50F6480F87462
:0E0228008098500AAC0DAD0E1200300B80E82D
:0102360022A5
:040278008A0A8B0B58
:10027C00120295AA0CEAD39400400D120204AC0AA7
:08028C00AD0B12025A1A80EDBD
:010294002247
:10015900120295C3EA64809480400B7F2B12026ED1
:100169008A168B17800E7F2D12026EC3E49BF5173A
:10017900E49AF516AA15EAD39400400D120204ACCC
:0901890016AD1712025A1A80ED9E
:01019200224A
:040193008A1A8B1B1E
:10019700120295AA1CEAD3940040297F1012020686
:1001A700AC1AAD1BCFCDCFCECCCE120042EF540F41
:1001B700FEC3940AEE5004243080022437FF120253
:0401C7006E1A80D15B
:0101CB002211
:0401CC008A1F8B20DB
:1001D000120295AA21EAD394004028EA24FFFDE404
:1001E00034FFFC7F027E00120210AC1FAD20CFCD89
:1001F000CFCECCCE120042EF54012430FF12026E5B
:030200001A80D28F
:0102030022D8
:02009700AD07B3
:10009900E4F508F509C2B6C2B5FB74807E00A80371
:1000A900088006CEA2E713CE13D8F8FFEDF582EF4C
:1000B900558224FF92B4D2B6C2B60BBB08DCE4FB6E
:1000C900D2B6C2B630B714E47E80A803088005CE44
:1000D900C313CE13D8F94209EE42080BBB10E1D283
:1000E900B5E508C4F854F0C868FEE509C4540F48DA
:0100F900FF07
:0100FA0022E3
:030000000202F009
:0C02F000787FE4F6D8FD7581230200FB46
:10000300BB010CE58229F582E5833AF583E02250B2
:1000130006E92582F8E622BBFE06E92582F8E222FC
:0D002300E58229F582E5833AF583E4932216
:10003000EF8DF0A4A8F0CF8CF0A428CE8DF0A42EE4
:02004000FE229E
:10004200BC000BBE0029EF8DF084FFADF022E4CCA2
:10005200F875F008EF2FFFEE33FEEC33FCEE9DEC6B
:10006200984005FCEE9DFE0FD5F0E9E4CEFD22EDB1
:10007200F8F5F0EE8420D21CFEADF075F008EF2FFB
:10008200FFED33FD4007985006D5F0F222C398FDEC
:050092000FD5F0EA2289
:00000001FF
